:100000000C9434000C943E000C943E000C943E0082
:100010000C943E000C943E000C943E000C943E0068
:100020000C943E000C943E000C943E000C943E0058
:100030000C943E000C943E000C943E000C943E0048
:100040000C943E000C943E000C943E000C943E0038
:100050000C943E000C943E000C943E000C943E0028
:100060000C943E000C943E0011241FBECFEFD8E04C
:10007000DEBFCDBF0E944E020C94F4040C9400002D
:100080000E94F5010E94FE0180ED0E940C028BE6A9
:100090000E940C0280E00E940C020C9408028F92D5
:1000A0009F92AF92BF92CF92DF92EF92FF920F9307
:1000B0001F93CF93DF9300D000D000D0CDB7DEB731
:1000C0006C017B018A010E94FE0180ED0E940C02FE
:1000D0008BE30E940C020E94060281ED0E940C023A
:1000E000CE0101965C014E0196E0890E911C0E94A2
:1000F0001602F50181935F01E815F905C1F70E9429
:100100002002B82E0E94080289819A8198278927A7
:100110009827F601918380838B819C81982789277A
:100120009827F701918380838D81982F8B2DF8017B
:100130009183808326960FB6F894DEBF0FBECDBFA5
:10014000DF91CF911F910F91FF90EF90DF90CF90B3
:10015000BF90AF909F908F9008958F929F92AF9293
:10016000BF92CF92DF92EF92FF920F931F93CF93A4
:10017000DF9300D000D000D0CDB7DEB76C017B019B
:100180008A010E94FE0180ED0E940C0283E40E941D
:100190000C020E94060281ED0E940C02CE01019623
:1001A0005C014E0196E0890E911C0E941602F50139
:1001B00081935F01E815F905C1F70E942002B82E6E
:1001C0000E94080289819A81982789279827F60139
:1001D000918380838B819C81982789279827F701B9
:1001E000918380838D81982F8B2DF801918380835B
:1001F00026960FB6F894DEBF0FBECDBFDF91CF912C
:100200001F910F91FF90EF90DF90CF90BF90AF9034
:100210009F908F9008950F931F93CF93DF938C013E
:100220000E94FE0180ED0E940C0281E40E940C02FB
:100230000E94060281ED0E940C020E941602C82F45
:100240000E942002D82F0E940802CD27DC27CD274C
:10025000F801D183C083DF91CF911F910F91089551
:100260004F925F926F927F92AF92BF92CF92DF9246
:10027000EF92FF920F931F93CF93DF938A01D12CBC
:10028000C12C97FF0AC090958095709561957F4F1E
:100290008F4F9F4FCC24C394D12C5801F12CE12CCB
:1002A0002AE0422E512C612C712CE7012196A301EA
:1002B00092010E94C502605DF50161935F01B90181
:1002C000CA0116161706180619063CF1CD2831F09A
:1002D000C00FD11F8DE28883E70122969E013595DC
:1002E0002795BE01600F711FDB01F801CF01801B54
:1002F000910B821793079CF0FB011082DF91CF9145
:100300001F910F91FF90EF90DF90CF90BF90AF9033
:100310007F906F905F904F9008957E01C6CF81913E
:100320009E91AF0141505109EA0198838C93DECF31
:100330008F929F92AF92BF92CF92DF92EF92FF92F5
:100340000F931F93CF93DF934B015C01EA010E944F
:10035000C3036B017C01AE010E943001CE01FC01A0
:1003600001968C010C1B1D0B20812111F8CF8EE210
:100370008083C701B6010E94FB039B01AC01C5014C
:10038000B4010E94E402C00FD11F10E000E07E0122
:1003900020E030E040E251E40E9487044B015C0120
:1003A0000E94C30320E3260F2993072E000C880B1D
:1003B000990B0E94FB039B01AC01C501B4010E9493
:1003C000E4020F5F1F4F0430110511F7F70114828B
:1003D000DF91CF911F910F91FF90EF90DF90CF9021
:1003E000BF90AF909F908F900895E9EBF0E08081EF
:1003F0008C7F80838CE08093B800089584EA80939A
:10040000BC008091BC0087FFFCCF08950C94FE01D6
:1004100084E98093BC0008958093BB0084E88093B6
:10042000BC008091BC0087FFFCCF089584EC8093D2
:10043000BC008091BC0087FFFCCF8091BB00089579
:1004400084E88093BC008091BC0087FFFCCF809142
:10045000BB0008959C0150E040E060E472E48FE04E
:1004600090E00E94A302215031093093C5002093EF
:10047000C40088E18093C10086E08093C2000895A3
:100480009091C00095FFFCCF8093C60008958091A5
:10049000C00087FFFCCF8091C6000895CF93DF9303
:1004A000CDB7DEB7E4970FB6F894DEBF0FBECDBF71
:1004B00080E895E20E942A020E944000CE01C39685
:1004C0000E940B016BA97CA9072E000C880B990BCD
:1004D0000E94FB0320E030E04AEA53E40E9451030B
:1004E00028EB3EE142E152E40E94E5026B017C010F
:1004F00084E50E9440028AE30E94400280E20E945A
:100500004002AE014F5F5F4FC701B6010E949801E4
:100510008E010F5F1F4FF80181918F01811110C073
:100520008DE00E9440028AE00E944002FFEF23ED2E
:1005300080E3F15020408040E1F700C00000BECFD2
:100540000E944002E8CFA1E21A2EAA1BBB1BFD01AC
:100550000DC0AA1FBB1FEE1FFF1FA217B307E407A2
:10056000F50720F0A21BB30BE40BF50B661F771FFA
:10057000881F991F1A9469F76095709580959095DA
:100580009B01AC01BD01CF010895052E97FB1EF420
:1005900000940E94DC0257FD07D00E94A30207FCD2
:1005A00003D04EF40C94DC02509540953095219583
:1005B0003F4F4F4F5F4F089590958095709561958F
:1005C0007F4F8F4F9F4F08955058BB27AA270E94F7
:1005D000FC020C944D040E943F0438F00E94460433
:1005E00020F039F49F3F19F426F40C943C040EF4E7
:1005F000E095E7FB0C943604E92F0E945E0458F363
:10060000BA17620773078407950720F079F4A6F5F7
:100610000C9480040EF4E0950B2EBA2FA02D0B0144
:10062000B90190010C01CA01A0011124FF27591B37
:1006300099F0593F50F4503E68F11A16F040A22F3D
:10064000232F342F4427585FF3CF469537952795AE
:10065000A795F0405395C9F77EF41F16BA0B620BAD
:10066000730B840BBAF09150A1F0FF0FBB1F661FF4
:10067000771F881FC2F70EC0BA0F621F731F841F37
:1006800048F4879577956795B795F7959E3F08F05D
:10069000B0CF9395880F08F09927EE0F979587951F
:1006A00008950E9465030C944D040E94460458F07E
:1006B0000E943F0440F029F45F3F29F00C94360477
:1006C00051110C9481040C943C040E945E0468F364
:1006D0009923B1F3552391F3951B550BBB27AA27FB
:1006E00062177307840738F09F5F5F4F220F331F35
:1006F000441FAA1FA9F335D00E2E3AF0E0E832D0FD
:1007000091505040E695001CCAF72BD0FE2F29D0FF
:10071000660F771F881FBB1F261737074807AB07D1
:10072000B0E809F0BB0B802DBF01FF2793585F4F46
:100730003AF09E3F510578F00C9436040C948104F5
:100740005F3FE4F3983ED4F3869577956795B79528
:10075000F7959F5FC9F7880F911D9695879597F933
:100760000895E1E0660F771F881FBB1F62177307AC
:100770008407BA0720F0621B730B840BBA0BEE1FC1
:1007800088F7E09508950E94CA036894B1110C940B
:10079000810408950E94660488F09F5798F0B92F4D
:1007A0009927B751B0F0E1F0660F771F881F991FA6
:1007B0001AF0BA95C9F714C0B13091F00E948004C4
:1007C000B1E008950C948004672F782F8827B85FD4
:1007D00039F0B93FCCF3869577956795B395D9F7FE
:1007E0003EF490958095709561957F4F8F4F9F4F08
:1007F0000895E89409C097FB3EF490958095709514
:1008000061957F4F8F4F9F4F9923A9F0F92F96E95C
:10081000BB279395F695879577956795B795F111D1
:10082000F8CFFAF4BB0F11F460FF1BC06F5F7F4F6E
:100830008F4F9F4F16C0882311F096E911C0772380
:1008400021F09EE8872F762F05C0662371F096E889
:10085000862F70E060E02AF09A95660F771F881F58
:10086000DAF7880F9695879597F9089597F99F6716
:1008700080E870E060E008959FEF80EC0895002428
:100880000A941616170618060906089500240A94F5
:1008900012161306140605060895092E0394000C7B
:1008A00011F4882352F0BB0F40F4BF2B11F460FF0A
:1008B00004C06F5F7F4F8F4F9F4F089557FD905833
:1008C000440F551F59F05F3F71F04795880F97FB14
:1008D000991F61F09F3F79F08795089512161306CE
:1008E0001406551FF2CF4695F1DF08C016161706FD
:1008F0001806991FF1CF8695710561050894089532
:10090000E894BB2766277727CB0197F908950E94C3
:100910009A040C944D040E943F0438F00E9446044F
:1009200020F0952311F00C9436040C943C0411240F
:100930000C9481040E945E0470F3959FC1F3950F9F
:1009400050E0551F629FF001729FBB27F00DB11D53
:10095000639FAA27F00DB11DAA1F649F6627B00DE3
:10096000A11D661F829F2227B00DA11D621F739FCC
:10097000B00DA11D621F839FA00D611D221F749FDA
:100980003327A00D611D231F849F600D211D822F21
:10099000762F6A2F11249F5750409AF0F1F0882348
:1009A0004AF0EE0FFF1FBB1F661F771F881F915075
:1009B0005040A9F79E3F510580F00C9436040C94EA
:1009C00081045F3FE4F3983ED4F38695779567956D
:1009D000B795F795E7959F5FC1F7FE2B880F911D9F
:0C09E0009695879597F90895F894FFCF3D
:00000001FF
