:100000000C9434000C9449000C9449000C94490061
:100010000C9449000C9449000C9449000C9449003C
:100020000C9449000C9449000C9449000C9449002C
:100030000C9449000C9449000C9449000C9449001C
:100040000C9449000C9449000C9449000C9449000C
:100050000C9449000C9449000C9449000C944900FC
:100060000C9449000C94490011241FBECFEFD8E036
:10007000DEBFCDBF11E0A0E0B1E0E6E3FDE002C0ED
:1000800005900D92AA34B107D9F70E949E030C94F3
:1000900099060C9400000E9470020E94790280ED83
:1000A0000E9487028BE60E94870280E00E948702FE
:1000B0000C9483028F929F92AF92BF92CF92DF9265
:1000C000EF92FF920F931F93CF93DF9300D000D056
:1000D00000D0CDB7DEB76C017B018A010E947902A6
:1000E00080ED0E9487028BE30E9487020E948102BA
:1000F00081ED0E948702CE0101965C014E0196E0DF
:10010000890E911C0E949102F50181935F01E8150F
:10011000F905C1F70E949B02B82E0E9483028981D3
:100120009A81982789279827F601918380838B816C
:100130009C81982789279827F701918380838D8157
:10014000982F8B2DF8019183808326960FB6F89413
:10015000DEBF0FBECDBFDF91CF911F910F91FF90FA
:10016000EF90DF90CF90BF90AF909F908F900895C9
:100170008F929F92AF92BF92CF92DF92EF92FF92B7
:100180000F931F93CF93DF9300D000D000D0CDB753
:10019000DEB76C017B018A010E94790280ED0E942A
:1001A000870283E40E9487020E94810281ED0E94FF
:1001B0008702CE0101965C014E0196E0890E911CEA
:1001C0000E949102F50181935F01E815F905C1F7DD
:1001D0000E949B02B82E0E94830289819A819827EF
:1001E00089279827F601918380838B819C819827AA
:1001F00089279827F701918380838D81982F8B2DF4
:10020000F8019183808326960FB6F894DEBF0FBE67
:10021000CDBFDF91CF911F910F91FF90EF90DF90B5
:10022000CF90BF90AF909F908F9008950F931F93A2
:10023000CF93DF938C010E94790280ED0E948702A8
:1002400081E40E9487020E94810281ED0E94870260
:100250000E949102C82F0E949B02D82F0E94830205
:10026000CD27DC27CD27F801D183C083DF91CF9143
:100270001F910F910895DF92EF92FF920F931F93BA
:10028000CF93DF937C01EB018A010E94790280ED1C
:100290000E9487028BE30E9487020E94810281ED07
:1002A0000E9487020E949102D82E0E9491029D2DE9
:1002B000F801918380830E949102D82E0E949102BE
:1002C0009D2DF801938382830E949102D82E0E9473
:1002D00091029D2DF801958384830E949102182F2D
:1002E0000E949102912FF701918380830E949102D5
:1002F000182F0E949102912F998388830E94910266
:10030000182F0E949102912F9B838A830E94910251
:10031000182F0E949B02912F9D838C83DF91CF9198
:100320001F910F91FF90EF90DF900C9483024F92FA
:100330005F926F927F92AF92BF92CF92DF92EF92D5
:10034000FF920F931F93CF93DF938A01D12CC12C7F
:1003500097FF0AC090958095709561957F4F8F4F5C
:100360009F4FCC24C394D12C5801F12CE12C2AE0CE
:10037000422E512C612C712CE7012196A301920190
:100380000E946A04605DF50161935F01B901CA01D1
:1003900016161706180619063CF1CD2831F0C00FC5
:1003A000D11F8DE28883E70122969E01359527951E
:1003B000BE01600F711FDB01F801CF01801B910BA3
:1003C000821793079CF0FB011082DF91CF911F9160
:1003D0000F91FF90EF90DF90CF90BF90AF907F9004
:1003E0006F905F904F9008957E01C6CF81919E914E
:1003F000AF0141505109EA0198838C93DECF4F92AF
:100400005F926F927F928F929F92AF92BF92CF92A4
:10041000DF92EF92FF920F931F93CF93DF934B01E5
:100420005C01EA01680179010E9468052B013C0129
:10043000AE010E949701CE01FC0101968C010C1BBC
:100440001D0B20812111F8CF8EE28083C301B20100
:100450000E94A0059B01AC01C501B4010E94890462
:100460009F77C00FD11F812C912C54018E018C14C9
:100470009D04AE04BF04ACF0C00ED11EF601108284
:10048000DF91CF911F910F91FF90EF90DF90CF9070
:10049000BF90AF909F908F907F906F905F904F90A4
:1004A000089520E030E040E251E40E942C062B0148
:1004B0003C010E94680520E3260F2993072E000CBB
:1004C000880B990B0E94A0059B01AC01C301B201EE
:1004D0000E9489042FEF821A920AA20AB20AC7CF99
:1004E000E9EBF0E080818C7F80838CE08093B80022
:1004F000089584EA8093BC008091BC0087FFFCCF04
:1005000008950C94790284E98093BC000895809347
:10051000BB0084E88093BC008091BC0087FFFCCFC7
:10052000089584EC8093BC008091BC0087FFFCCFD1
:100530008091BB00089584E88093BC008091BC004A
:1005400087FFFCCF8091BB0008959C0150E040E004
:1005500060E472E48FE090E00E9448042150310989
:100560003093C5002093C40088E18093C10086E0E9
:100570008093C20008959091C00095FFFCCF8093B6
:10058000C60008958091C00087FFFCCF8091C6000F
:100590000895CF93DF93EC018991811103C0DF911E
:1005A000CF9108950E94BB02F7CFCF93DF93EC0168
:1005B0008991811108C08DE00E94BB028AE0DF9121
:1005C000CF910C94BB020E94BB02F2CF1F93CF933A
:1005D000DF9300D000D000D01F92CDB7DEB7AE01C0
:1005E0004F5F5F4F0E94970110E0E1E0F0E0EC0FF9
:1005F000FD1FE10FF11D17FDFA95808181110AC0E1
:1006000027960FB6F894DEBF0FBECDBFDF91CF9116
:100610001F9108950E94BB021F5FE7CF1F93CF93E6
:10062000DF9300D000D000D01F92CDB7DEB7AE016F
:100630004F5F5F4F0E94970110E0E1E0F0E0EC0FA8
:10064000FD1FE10FF11D17FDFA958081811110C08A
:100650008DE00E94BB028AE00E94BB0227960FB683
:10066000F894DEBF0FBECDBFDF91CF911F910895EB
:100670000E94BB021F5FE1CF0F931F93CF93DF93C5
:10068000CDB7DEB7A9970FB6F894DEBF0FBECDBFCA
:1006900089019A01AE014F5F5F4F0E94FF0110E098
:1006A000E1E0F0E0EC0FFD1FE10FF11D17FDFA9501
:1006B000808181110BC0A9960FB6F894DEBF0FBEE2
:1006C000CDBFDF91CF911F910F9108950E94BB0282
:1006D0001F5FE6CF0F931F93CF93DF93CDB7DEB7A6
:1006E000A9970FB6F894DEBF0FBECDBF89019A015E
:1006F000AE014F5F5F4F0E94FF0110E0E1E0F0E0CC
:10070000EC0FFD1FE10FF11D17FDFA95808181119E
:1007100011C08DE00E94BB028AE00E94BB02A99634
:100720000FB6F894DEBF0FBECDBFDF91CF911F9102
:100730000F9108950E94BB021F5FE0CFCF93DF931C
:10074000CDB7DEB72E970FB6F894DEBF0FBECDBF84
:1007500080E895E20E94A5020E944B00AE01495F2D
:100760005F4FBE016F5F7F4FCE010D960E943B0130
:100770006D857E85072E000C880B990B0E94A005C5
:1007800020E030E04AEA53E40E94F60428EB3EE120
:1007900042E152E40E948A046B017C0180E091E016
:1007A0000E94C90222E030E040E050E0C701B601FB
:1007B0000E943C038FE091E00E94D50284E191E029
:1007C0000E94C9026F817885072E000C880B990B57
:1007D0000E94E6028CE191E00E94D5028FE191E057
:1007E0000E94C90269857A85072E000C880B990B37
:1007F0000E94E6028CE191E00E94D50287E291E03E
:100800000E94C9026B857C85072E000C880B990B12
:100810000E94E6028CE191E00E94D5028FE291E015
:100820000E94C90269817A81072E000C880B990BFE
:100830000E94E6028CE191E00E94D50288E391E0FB
:100840000E94C9026B817C81072E000C880B990BDA
:100850000E94E6028CE191E00E94D50281E491E0E1
:100860000E94C9026D817E81072E000C880B990BB6
:100870000E94E6028CE191E00E94D5022FEF87EA08
:1008800091E6215080409040E1F700C0000066CF23
:10089000A1E21A2EAA1BBB1BFD010DC0AA1FBB1F84
:1008A000EE1FFF1FA217B307E407F50720F0A21BF6
:1008B000B30BE40BF50B661F771F881F991F1A9463
:1008C00069F760957095809590959B01AC01BD018D
:1008D000CF010895052E97FB1EF400940E94810419
:1008E00057FD07D00E94480407FC03D04EF40C9437
:1008F000810450954095309521953F4F4F4F5F4F64
:10090000089590958095709561957F4F8F4F9F4F7B
:1009100008955058BB27AA270E94A1040C94F20501
:100920000E94E40538F00E94EB0520F039F49F3F67
:1009300019F426F40C94E1050EF4E095E7FB0C9411
:10094000DB05E92F0E94030658F3BA176207730705
:100950008407950720F079F4A6F50C9425060EF48B
:10096000E0950B2EBA2FA02D0B01B90190010C01BF
:10097000CA01A0011124FF27591B99F0593F50F4D7
:10098000503E68F11A16F040A22F232F342F44272F
:10099000585FF3CF469537952795A795F040539527
:1009A000C9F77EF41F16BA0B620B730B840BBAF0F7
:1009B0009150A1F0FF0FBB1F661F771F881FC2F762
:1009C0000EC0BA0F621F731F841F48F48795779576
:1009D0006795B795F7959E3F08F0B0CF9395880F30
:1009E00008F09927EE0F9795879508950E940A05BC
:1009F0000C94F2050E94EB0558F00E94E40540F0CB
:100A000029F45F3F29F00C94DB0551110C94260664
:100A10000C94E1050E94030668F39923B1F3552372
:100A200091F3951B550BBB27AA2762177307840701
:100A300038F09F5F5F4F220F331F441FAA1FA9F397
:100A400035D00E2E3AF0E0E832D091505040E69585
:100A5000001CCAF72BD0FE2F29D0660F771F881FE6
:100A6000BB1F261737074807AB07B0E809F0BB0BD9
:100A7000802DBF01FF2793585F4F3AF09E3F5105ED
:100A800078F00C94DB050C9426065F3FE4F3983E67
:100A9000D4F3869577956795B795F7959F5FC9F7D6
:100AA000880F911D9695879597F90895E1E0660F57
:100AB000771F881FBB1F621773078407BA0720F0D0
:100AC000621B730B840BBA0BEE1F88F7E095089539
:100AD0000E946F056894B1110C94260608950E9437
:100AE0000B0688F09F5798F0B92F9927B751B0F0AF
:100AF000E1F0660F771F881F991F1AF0BA95C9F7A2
:100B000014C0B13091F00E942506B1E008950C9414
:100B10002506672F782F8827B85F39F0B93FCCF3C7
:100B2000869577956795B395D9F73EF4909580951E
:100B3000709561957F4F8F4F9F4F0895E89409C03E
:100B400097FB3EF490958095709561957F4F8F4F00
:100B50009F4F9923A9F0F92F96E9BB279395F69516
:100B6000879577956795B795F111F8CFFAF4BB0F94
:100B700011F460FF1BC06F5F7F4F8F4F9F4F16C0F8
:100B8000882311F096E911C0772321F09EE8872F82
:100B9000762F05C0662371F096E8862F70E060E03E
:100BA0002AF09A95660F771F881FDAF7880F9695B7
:100BB000879597F9089597F99F6780E870E060E05E
:100BC00008959FEF80EC089500240A9416161706E6
:100BD00018060906089500240A941216130614062E
:100BE00005060895092E0394000C11F4882352F091
:100BF000BB0F40F4BF2B11F460FF04C06F5F7F4F49
:100C00008F4F9F4F089557FD9058440F551F59F02F
:100C10005F3F71F04795880F97FB991F61F09F3FE9
:100C200079F087950895121613061406551FF2CF12
:100C30004695F1DF08C0161617061806991FF1CF62
:100C400086957105610508940895E894BB27662789
:100C50007727CB0197F908950E943F060C94F2057F
:100C60000E94E40538F00E94EB0520F0952311F076
:100C70000C94DB050C94E10511240C9426060E94CB
:100C8000030670F3959FC1F3950F50E0551F629FC7
:100C9000F001729FBB27F00DB11D639FAA27F00DD5
:100CA000B11DAA1F649F6627B00DA11D661F829FFC
:100CB0002227B00DA11D621F739FB00DA11D621FE1
:100CC000839FA00D611D221F749F3327A00D611DFE
:100CD000231F849F600D211D822F762F6A2F1124E0
:100CE0009F5750409AF0F1F088234AF0EE0FFF1F13
:100CF000BB1F661F771F881F91505040A9F79E3F6A
:100D0000510580F00C94DB050C9426065F3FE4F35C
:100D1000983ED4F3869577956795B795F795E795BF
:100D20009F5FC1F7FE2B880F911D9695879597F9C8
:060D30000895F894FFCFC6
:100D360054656D7065726174757265203A20002085
:100D4600C2B0430041636358203A2000203F00416F
:100D5600636359203A20004163635A203A200047D2
:100D660079726F58203A20004779726F59203A20DD
:0A0D7600004779726F5A203A2000FE
:00000001FF
