:100000000C9461000C947E000C947E000C947E0095
:100010000C947E000C947E000C947E000C947E0068
:100020000C947E000C947E000C947E000C94D605FB
:100030000C947E000C947E000C947E000C947E0048
:100040000C947E000C947E000C947E000C947E0038
:100050000C947E000C947E000C947E000C947E0028
:100060000C947E000C947E00036EDB363D9A9999C9
:10007000993DABAAAA2A3E000000803F072C7AA532
:10008000BA6CC590DA3B9365FC8BBC53F810FD3C11
:100090005692834DBD879D3AB63DCBC9BF5BBE73BB
:1000A000DA0FC93F05A84CCDB2D44EB93836A902F3
:1000B0000C50B9918688083CA6AAAA2ABE00000066
:1000C000803F11241FBECFEFD8E0DEBFCDBF11E0CF
:1000D000A0E0B1E0E8E7F7E102C005900D92AA3197
:1000E000B107D9F721E0AAE1B1E001C01D92A7361E
:1000F000B207E1F70E9408080C94BA0B0C940000B8
:100100000E94D6060E94DF0680ED0E94ED068BE677
:100110000E94ED0680E00E94ED060E94E9060E9422
:10012000DF0680ED0E94ED068BE10E94ED0688E07F
:100130000E94ED060E94E9060E94DF0680ED0E9403
:10014000ED068CE10E94ED0680E10E94ED060E9422
:10015000E9060E94DF0680ED0E94ED068AE10E941A
:10016000ED0683E00E94ED060C94E9061F93CF9301
:10017000DF930E94DF0680ED0E94ED068BE30E9474
:10018000ED060E94E70681ED0E94ED060E94F7064B
:10019000182F0E94F706CFE3D1E0912F998388832F
:1001A0000E94F706182F0E94F706912F9B838A83DF
:1001B0000E94F706182F0E940107912F9D838C83C0
:1001C000DF91CF911F910C94E9061F93CF93DF939A
:1001D0000E94DF0680ED0E94ED0683E40E94ED069A
:1001E0000E94E70681ED0E94ED060E94F706182F97
:1001F0000E94F706C7E5D1E0912F998388830E947A
:10020000F706182F0E94F706912F9B838A830E947E
:10021000F706182F0E940107912F9D838C83DF9191
:10022000CF911F910C94E9061F93CF93DF930E9407
:10023000DF0680ED0E94ED068BE30E94ED060E9432
:10024000E70681ED0E94ED060E94F706182F0E9436
:10025000F706CFE3D1E0912F998388830E94F706B8
:10026000182F0E94F706912F9B838A830E94F7061E
:10027000182F0E94F706912F9D838C830E94F7060A
:10028000C82F0E94F7069C2F909328018093270186
:100290000E94F706182F0E94F706C7E5D1E0912FBC
:1002A000998388830E94F706182F0E94F706912FE2
:1002B0009B838A830E94F706182F0E940107912FC3
:1002C0009D838C83DF91CF911F910C94E9064F920F
:1002D0005F926F927F928F929F92AF92BF92CF92D6
:1002E000DF92EF92FF92CF93DF93C0EDD7E0C12C66
:1002F000D12C7601812C912C5401412C512C3201AE
:100300000E94E5008091570190915801092E000C40
:10031000AA0BBB0B480E591E6A1E7B1E8091590109
:1003200090915A01092E000CAA0BBB0B880E991E46
:10033000AA1EBB1E80915B0190915C01092E000CEE
:10034000AA0BBB0BC80ED91EEA1EFB1E63E070E0B1
:1003500080E090E00E949D05219791F6C301B201D3
:1003600020ED37E040E050E00E9459083093520100
:1003700020935101C501B40120ED37E040E050E089
:100380000E9459083093540120935301C701B601CC
:1003900020ED37E040E050E00E94590830935601CC
:1003A00020935501DF91CF91FF90EF90DF90CF9098
:1003B000BF90AF909F908F907F906F905F904F9085
:1003C00008954F925F926F927F928F929F92AF9219
:1003D000BF92CF92DF92EF92FF920F931F93CF9332
:1003E000DF930E94E500E7E5F1E0A1E5B1E060817F
:1003F00071818D919C911197681B790B718360833A
:10040000C281D38112968D919C911397C81BD90BF1
:10041000D383C283A480B58014968D919C91A81A31
:10042000B90AB582A48205E411E0072E000C880BFE
:10043000990B0E94C40920E03CED4FE756E40E946E
:100440001A09F80120813181428153810E94930869
:100450006B017C01B501BB0C880B990B0E94C40990
:1004600023E53EE04FE855E30E94AB0A0E94180BDB
:100470004B015C01662777276C1B7D0B072E000C58
:10048000880B990B0E94C40920E03CED4FE756E42D
:100490000E941A09F80124813581468157810E9402
:1004A00093082B013C01A5019401C701B6010E94EC
:1004B000AB0A9B01AC01C301B2010E9493089B01EE
:1004C000AC01F8012483358346835783C501B40109
:1004D0000E94AB0A9B01AC01C701B6010E949208C1
:1004E000F8016083718382839383DF91CF911F91A1
:1004F0000F91FF90EF90DF90CF90BF90AF909F90C3
:100500008F907F906F905F904F9008954F925F9281
:100510006F927F928F929F92AF92BF92CF92DF9213
:10052000EF92FF920F931F93CF93DF9300D000D0F1
:1005300000D0CDB7DEB720913F01309140013E831E
:100540002D83B901330F880B990B0E94C4096B01ED
:100550007C010091410110914201B801012E000C73
:10056000880B990B0E94C4094B015C016091430107
:1005700070914401072E000C880B990B0E94C4094E
:100580002B013C01A5019401C501B4010E94AB0AF5
:1005900069837A838B839C83A7019601C701B60187
:1005A0000E94AB0A9B01AC0169817A818B819C819D
:1005B0000E94930869837A838B839C83A3019201B1
:1005C000C301B2010E94AB0A9B01AC0169817A812F
:1005D0008B819C810E9493080E94260B0E948C09AB
:1005E0002B013C014092290150922A0160922B017B
:1005F00070922C018D819E8197FF05C09195819508
:1006000091099E838D832D813E81C901330FAA0BF1
:10061000BB0B84159505A605B705D4F4C301B2013B
:100620000E94C4099B01AC01C501B4010E941A09D2
:100630000E94FF0820EE3EE245E652E40E94AB0A2B
:1006400060932D0170932E0180932F0190933001C0
:1006500017FF03C0119501951109012E000C220B03
:10066000330B0415150526053705D4F4C301B20173
:100670000E94C4099B01AC01C701B6010E941A097E
:100680000E94FF0820EE3EE245E652E40E94AB0ADB
:100690006093310170933201809333019093340160
:1006A00026960FB6F894DEBF0FBECDBFDF91CF9177
:1006B0001F910F91FF90EF90DF90CF90BF90AF9080
:1006C0009F908F907F906F905F904F900895CF9202
:1006D000DF92EF92FF92CF93DF93EC010E9414011F
:1006E0000E94E1010E94860280912601882309F47C
:1006F000BEC029EC35EE4FE75FE360914501709194
:10070000460180914701909148010E94AB0A6B011C
:100710007C0127E137EB41ED59E360912D017091A8
:100720002E0180912F01909130010E94AB0A9B0114
:10073000AC01C701B6010E94930860934501709314
:100740004601809347019093480129EC35EE4FE72D
:100750005FE36091490170914A0180914B01909152
:100760004C010E94AB0A6B017C0127E137EB41EDA4
:1007700059E3609131017091320180913301909180
:1007800034010E94AB0A9B01AC01C701B6010E9473
:1007900093086093490170934A0180934B019093B1
:1007A0004C0126E636E646E65FE3688579858A856C
:1007B0009B850E94AB0A6B017C012DEC3CEC4CEC60
:1007C0005DE36091450170914601809147019091F0
:1007D00048010E94AB0A9B01AC01C701B6010E940F
:1007E0009308688779878A879B8726E636E646E6F8
:1007F0005FE36C817D818E819F810E94AB0A6B01DA
:100800007C012DEC3CEC4CEC5DE360914901709176
:100810004A0180914B0190914C010E94AB0A9B01CF
:10082000AC01C701B6010E9493086C837D838E835F
:100830009F8360915B0170915C0171956195710975
:10084000072E000C880B990B0E94C40920E030E0B1
:1008500043E852E40E941A09688379838A839B8360
:10086000DF91CF91FF90EF90DF90CF90089580912E
:100870002D0190912E01A0912F01B0913001809314
:10088000450190934601A0934701B09348018091A0
:10089000310190913201A0913301B09134018093E4
:1008A000490190934A01A0934B01B0934C0181E020
:1008B0008093260176CFCF92DF92EF92FF92CF9373
:1008C000DF93EC010E9414010E94E1010E94860264
:1008D00080912601882309F4EBC029EC35EE4FE71F
:1008E0005FE36091450170914601809147019091CD
:1008F00048010E94AB0A6B017C0127E137EB41ED17
:1009000059E360912D0170912E0180912F019091FA
:1009100030010E94AB0A9B01AC01C701B6010E94E5
:10092000930860934501709346018093470190932B
:10093000480129EC35EE4FE75FE360914901709182
:100940004A0180914B0190914C010E94AB0A6B01CE
:100950007C0127E137EB41ED59E360913101709162
:10096000320180913301909134010E94AB0A9B01C6
:10097000AC01C701B6010E949308609349017093CE
:100980004A0180934B0190934C0126E636E646E6F9
:100990005FE3688579858A859B850E94AB0A6B0138
:1009A0007C012DEC3CEC4CEC5DE3609145017091D9
:1009B000460180914701909148010E94AB0A9B013A
:1009C000AC01C701B6010E949308688779878A87BE
:1009D0009B8726E636E646E65FE36C817D818E8165
:1009E0009F810E94AB0A6B017C012DEC3CEC4CEC2E
:1009F0005DE36091490170914A0180914B019091B2
:100A00004C010E94AB0A9B01AC01C701B6010E94D8
:100A100093086C837D838E839F8360915B017091CB
:100A20005C01719561957109072E000C880B990B7B
:100A30000E94C40920E030E043E852E40E941A0911
:100A4000688379838A839B8380E091E00E943B07DF
:100A50008BE091E00E942F07688579858A859B85C8
:100A600022E030E040E050E00E94D40780E191E0D5
:100A70000E942F076C817D818E819F8122E030E072
:100A800040E050E00E94D40785E191E00E942F07EA
:100A9000688179818A819B8122E030E040E050E0EA
:100AA000DF91CF91FF90EF90DF90CF900C94D4071F
:100AB00080912D0190912E01A0912F01B0913001D4
:100AC0008093450190934601A0934701B09348015C
:100AD0008091310190913201A0913301B0913401A4
:100AE0008093490190934A01A0934B01B0934C012C
:100AF00081E08093260149CFE1E8F0E080818860C1
:100B0000808380818360808389EF90E09093890067
:100B100080938800EFE6F0E08081826080837894A3
:100B200008952FB7F89460915D0170915E018091F6
:100B30005F01909160012FBF08958F929F92AF92B5
:100B4000BF92CF92DF92EF92FF926B017C010E94E5
:100B500091054B015C010E949105681979098A0988
:100B60009B096C157D058E059F05A8F3FF90EF90FE
:100B7000DF90CF90BF90AF909F908F9008958FB7E8
:100B8000F89420915D0130915E0140915F01509198
:100B90006001E6B58FBFA8EEB3E00E947808E29549
:100BA000EF706E0F711D811D911D08951F920F92A0
:100BB0000FB60F9211248F939F93AF93BF93F89426
:100BC00080915D0190915E01A0915F01B091600103
:100BD0000196A11DB11D80935D0190935E01A093CC
:100BE0005F01B09360017894BF91AF919F918F9115
:100BF0000F900FBE0F901F9018954F925F926F92BB
:100C00007F92AF92BF92CF92DF92EF92FF920F93BB
:100C10001F93CF93DF938A01D12CC12C97FF0AC079
:100C200090958095709561957F4F8F4F9F4FCC2405
:100C3000C394D12C5801F12CE12C2AE0422E512CE6
:100C4000612C712CE7012196A30192010E945908A1
:100C5000605DF50161935F01B901CA0116161706BF
:100C6000180619063CF1CD2831F0C00FD11F8DE2D6
:100C70008883E70122969E0135952795BE01600F76
:100C8000711FDB01F801CF01801B910B82179307C5
:100C90009CF0FB011082DF91CF911F910F91FF908B
:100CA000EF90DF90CF90BF90AF907F906F905F906C
:100CB0004F9008957E01C6CF81919E91AF01415022
:100CC0005109EA0198838C93DECF4F925F926F9225
:100CD0007F928F929F92AF92BF92CF92DF92EF92CC
:100CE000FF920F931F93CF93DF934B015C01EA01B7
:100CF000680179010E948C092B013C01AE010E9420
:100D0000FD05CE01FC0101968C010C1B1D0B208101
:100D10002111F8CF8EE28083C301B2010E94C40981
:100D20009B01AC01C501B4010E9492089F77C00FDE
:100D3000D11F812C912C54018E018C149D04AE0482
:100D4000BF04ACF0C00ED11EF6011082DF91CF912E
:100D50001F910F91FF90EF90DF90CF90BF90AF90D9
:100D60009F908F907F906F905F904F90089520E0BC
:100D700030E040E251E40E94AB0A2B013C010E94AA
:100D80008C0920E3260F2993072E000C880B990B62
:100D90000E94C4099B01AC01C301B2010E949208E8
:100DA0002FEF821A920AA20AB20AC7CFE9EBF0E04B
:100DB00080818C7F80838CE08093B800089584EAE2
:100DC0008093BC008091BC0087FFFCCF08950C94F9
:100DD000DF0684E98093BC0008958093BB0084E81B
:100DE0008093BC008091BC0087FFFCCF089584EC09
:100DF0008093BC008091BC0087FFFCCF8091BB003A
:100E0000089584E88093BC008091BC0087FFFCCFEC
:100E10008091BB0008959C0150E040E060E472E4E2
:100E20008FE090E00E943708215031093093C500CF
:100E30002093C40088E18093C10086E08093C200C3
:100E400008959091C00095FFFCCF8093C60008954F
:100E50008091C00087FFFCCF8091C6000895CF939A
:100E6000DF93EC018991811103C0DF91CF91089547
:100E70000E942107F7CFCF93DF93EC018991811175
:100E800008C08DE00E9421078AE0DF91CF910C9489
:100E900021070E942107F2CF1F93CF93DF93CDB795
:100EA000DEB72C970FB6F894DEBF0FBECDBFAE01F4
:100EB0004F5F5F4F0E94FD0510E0E1E0F0E0EC0FB6
:100EC000FD1FE10FF11D17FDFA95808181110AC008
:100ED0002C960FB6F894DEBF0FBECDBFDF91CF9139
:100EE0001F9108950E9421071F5FE7CF1F93CF93A3
:100EF000DF93CDB7DEB72C970FB6F894DEBF0FBEE9
:100F0000CDBFAE014F5F5F4F0E94FD0510E0E1E0F5
:100F1000F0E0EC0FFD1FE10FF11D17FDFA95808148
:100F2000811110C08DE00E9421078AE00E942107F4
:100F30002C960FB6F894DEBF0FBECDBFDF91CF91D8
:100F40001F9108950E9421071F5FE1CF0F931F9308
:100F5000CF93DF93CDB7DEB7A9970FB6F894DEBF76
:100F60000FBECDBF89019A01AE014F5F5F4F0E9456
:100F7000650610E0E1E0F0E0EC0FFD1FE10FF11D70
:100F800017FDFA95808181110BC0A9960FB6F894D0
:100F9000DEBF0FBECDBFDF91CF911F910F9108959E
:100FA0000E9421071F5FE6CF0F931F93CF93DF931C
:100FB000CDB7DEB7A9970FB6F894DEBF0FBECDBF91
:100FC00089019A01AE014F5F5F4F0E94650610E0F4
:100FD000E1E0F0E0EC0FFD1FE10FF11D17FDFA95C8
:100FE0008081811111C08DE00E9421078AE00E945A
:100FF0002107A9960FB6F894DEBF0FBECDBFDF91D3
:10100000CF911F910F9108950E9421071F5FE0CF9C
:10101000259A2D9A80E895E20E940B070E947C0594
:101020000E9480000E9467012D980E9491056B012B
:101030007C018AE191E00E9467030E9491056C198E
:101040007D098E099F09693E73408105910540F035
:101050008AE191E00E945B040E9491056B017C0192
:1010600064E070E080E090E00E949D05E2CFA1E2A4
:101070001A2EAA1BBB1BFD010DC0AA1FBB1FEE1F12
:10108000FF1FA217B307E407F50720F0A21BB30B5D
:10109000E40BF50B661F771F881F991F1A9469F7D9
:1010A00060957095809590959B01AC01BD01CF0135
:1010B0000895052E97FB1EF400940E94700857FDBA
:1010C00007D00E94370807FC03D04EF40C94700838
:1010D00050954095309521953F4F4F4F5F4F089564
:1010E00090958095709561957F4F8F4F9F4F089594
:1010F0000E948308A59F900DB49F900DA49F800D22
:10110000911D11240895A29FB001B39FC001A39F18
:10111000700D811D1124911DB29F700D811D112430
:10112000911D08955058BB27AA270E94AA080C9425
:10113000710A0E94630A38F00E946A0A20F039F4AA
:101140009F3F19F426F40C94250A0EF4E095E7FB72
:101150000C941F0AE92F0E94820A58F3BA176207FB
:1011600073078407950720F079F4A6F50C94A40A78
:101170000EF4E0950B2EBA2FA02D0B01B9019001B2
:101180000C01CA01A0011124FF27591B99F0593FF6
:1011900050F4503E68F11A16F040A22F232F342F3E
:1011A0004427585FF3CF469537952795A795F0408C
:1011B0005395C9F77EF41F16BA0B620B730B840BA1
:1011C000BAF09150A1F0FF0FBB1F661F771F881F59
:1011D000C2F70EC0BA0F621F731F841F48F48795B1
:1011E00077956795B795F7959E3F08F0B0CF9395A3
:1011F000880F08F09927EE0F9795879508959F938C
:101200009F77EEE389379E0728F4E8E6F0E00E9436
:101210004F0A0CC00E94FF099058A2EA2AED3FE055
:1012200049EC5FE30E94AA080E94710A0F9007FC34
:10123000905808950E942E090C94710A0E946A0A1F
:1012400058F00E94630A40F029F45F3F29F00C94A3
:101250001F0A51110C94A50A0C94250A0E94820AB7
:1012600068F39923B1F3552391F3951B550BBB27D5
:10127000AA2762177307840738F09F5F5F4F220F1A
:10128000331F441FAA1FA9F335D00E2E3AF0E0E811
:1012900032D091505040E695001CCAF72BD0FE2F5B
:1012A00029D0660F771F881FBB1F261737074807EF
:1012B000AB07B0E809F0BB0B802DBF01FF279358A7
:1012C0005F4F3AF09E3F510578F00C941F0A0C9442
:1012D000A50A5F3FE4F3983ED4F38695779567952A
:1012E000B795F7959F5FC9F7880F911D96958795DC
:1012F00097F90895E1E0660F771F881FBB1F6217FB
:1013000073078407BA0720F0621B730B840BBA0BB8
:10131000EE1F88F7E09508950E9493096894B11133
:101320000C94A50A08950E948A0A88F09F5798F0A5
:10133000B92F9927B751B0F0E1F0660F771F881FDA
:10134000991F1AF0BA95C9F714C0B13091F00E94F4
:10135000A40AB1E008950C94A40A672F782F882777
:10136000B85F39F0B93FCCF3869577956795B3951B
:10137000D9F73EF490958095709561957F4F8F4F8A
:101380009F4F0895E89409C097FB3EF4909580958F
:10139000709561957F4F8F4F9F4F9923A9F0F92F3B
:1013A00096E9BB279395F695879577956795B795B9
:1013B000F111F8CFFAF4BB0F11F460FF1BC06F5F9F
:1013C0007F4F8F4F9F4F16C0882311F096E911C0B1
:1013D000772321F09EE8872F762F05C0662371F0D2
:1013E00096E8862F70E060E02AF09A95660F771FE6
:1013F000881FDAF7880F9695879597F90895DF93F8
:10140000CF931F930F938B01EC01ECE7F0E00E9468
:10141000280A0E94710A9801AE018B01EC0160E07C
:1014200070E080E89FE30E9492080E94260B9801DA
:10143000AE010F911F91CF91DF910C94BE0A97F9E5
:101440009F6780E870E060E008959FEF80EC08956A
:10145000DF93CF931F930F93FF92EF92DF927B0165
:101460008C01689406C0DA2EEF010E94BE0AFE01CC
:10147000E894A5912591359145915591A6F3EF01F9
:101480000E94AA08FE019701A801DA9469F7DF908B
:10149000EF90FF900F911F91CF91DF9108959F934F
:1014A0008F937F936F93FF93EF939B01AC010E9407
:1014B000AB0AEF91FF910E94280A2F913F914F9123
:1014C0005F910C94AB0A00240A94161617061806AE
:1014D0000906089500240A94121613061406050638
:1014E0000895092E0394000C11F4882352F0BB0FC9
:1014F00040F4BF2B11F460FF04C06F5F7F4F8F4F2C
:101500009F4F089557FD9058440F551F59F05F3F66
:1015100071F04795880F97FB991F61F09F3F79F015
:1015200087950895121613061406551FF2CF469597
:10153000F1DF08C0161617061806991FF1CF869519
:101540007105610508940895E894BB2766277727FD
:10155000CB0197F908950E94BE0A0C94710A0E946B
:10156000630A38F00E946A0A20F0952311F00C9467
:101570001F0A0C94250A11240C94A50A0E94820AC1
:1015800070F3959FC1F3950F50E0551F629FF001D6
:10159000729FBB27F00DB11D639FAA27F00DB11DEF
:1015A000AA1F649F6627B00DA11D661F829F222778
:1015B000B00DA11D621F739FB00DA11D621F839FFF
:1015C000A00D611D221F749F3327A00D611D231FD5
:1015D000849F600D211D822F762F6A2F11249F5723
:1015E00050409AF0F1F088234AF0EE0FFF1FBB1F26
:1015F000661F771F881F91505040A9F79E3F5105E5
:1016000080F00C941F0A0C94A50A5F3FE4F3983E07
:10161000D4F3869577956795B795F795E7959F5F8E
:10162000C1F7FE2B880F911D9695879597F9089520
:101630009F930E947D0B0F9007FCEE5F0C94A60B0E
:1016400019F416F40C94250A0C94660B0E948A0A6D
:10165000B8F39923C9F3B6F39F57550B87FF0E9440
:10166000740B0024A0E640EA9001805856959795A7
:1016700028F4805C660F771F881F20F02617370735
:10168000480730F4621B730B840B202931294A2B45
:10169000A69517940794202531254A2758F7660FF9
:1016A000771F881F20F026173707480730F4620B92
:1016B000730B840B200D311D411DA09581F7B901DD
:1016C000842F9158880F9695879508959F3F31F004
:1016D000915020F4879577956795B795880F911D60
:1016E0009695879597F9089591505040660F771F0A
:1016F000881FD2F708950C94250A0E948A0AD8F30D
:10170000E894E0E0BB279F57F0F02AED3FE049EC7A
:1017100006C0EE0FBB0F661F771F881F28F0B23A76
:1017200062077307840728F0B25A620B730B840BAD
:10173000E3959A9572F7803830F49A95BB0F661F3F
:10174000771F881FD2F790480C94680BEF93E0FF47
:1017500007C0A2EA2AED3FE049EC5FEB0E94AA082D
:101760000E94710A0F90039401FC9058E4EAF0E0A3
:081770000C944F0AF894FFCF1E
:10177800506F736974696F6E203A0058203A2000E0
:0A17880059203A20005A203A2000B0
:00000001FF
